:100000000C94AA040C94C7040C94C7040C94C70461
:100010000C94C7040C94C7040C94C7040C94E30913
:100020000C94C7040C94C7040C94C7040C94C70424
:100030000C94C7040C94AC090C94C7040C94C7042A
:100040000C94C7040C94C7040C94C7040C94C70404
:100050000C94C70400000000000000000000000035
:100060000000000000000000000000000000000090
:100070000000000000000000000000000000000080
:100080000000000000000000000000000000000070
:100090000000000000000000000000000000000060
:1000A0000000000000000000000000000000000050
:1000B0000000000000000000000000000000000040
:1000C0000000000000000000000000000000000030
:1000D0000000000000000000000000000000000020
:1000E0000000000000000000000000000000000010
:1000F0000000000000000000000000000000000000
:1001000000000000000000000000000000000000EF
:1001100000000000000000000000000000000000DF
:1001200000000000000000000000000000000000CF
:1001300000000000000000000000000000000000BF
:1001400000000000000000000000000000000000AF
:10015000000000000000000000000000000000009F
:10016000000000000000000000000000000000008F
:10017000000000000000000000000000001010104F
:1001800010101010001028282800000000000000A7
:100190002828FE28FE282800107E90907C1212FC51
:1001A00010E2A2E40810204E8A8E20505060609425
:1001B000889460101020000000000000081020202B
:1001C000202020100820100808080808102000002F
:1001D0004830FC30480000000010107C1010000077
:1001E000000000000000101020000000007C000053
:1001F000000000000000000000303002020408107F
:10020000204080803844828282828244381030507C
:1002100010101010107C7C8202020C30C082FE7C18
:10022000820204180402827C0818284888FE080804
:100230001CFE8080FC020202827C3C408080FC82AA
:1002400082827CFE02020408101010107C828282DE
:100250007C8282827C7C8282827E02020478000020
:1002600000101000001010000000101000101020EE
:100270000004081020100804000000007C00007C2E
:100280000000002010080408102000384404081062
:1002900010001010788484BCA4BC8080783048841E
:1002A0008484FC848484F844444478444444F83886
:1002B0004480808080804438F0484444444444482A
:1002C000F0FC8480A0E0A08084FCFC8480A0E0A0FE
:1002D00080808038448080809C84443C84848484F2
:1002E000FC848484843810101010101010381C08FE
:1002F00008080808484830848890A0C0A0908884E6
:10030000E040404040404044FC82C6AA9292828233
:10031000828284C4A4948C84848484788484848435
:1003200084848478F844444478404040E07884846D
:10033000848484948874F844444478504844E4782D
:100340008480807804048478FE92101010101010BD
:1003500038848484848484848478848484848448F1
:1003600048483082828282929292926C82824428A1
:100370001028448282828244281010101038FE0215
:10038000040810204080FE38202020202020203823
:100390008080402010080402023808080808080875
:1003A00008380814220000000000000000000000CF
:1003B000000000FF10100800000000000000000016
:1003C00070087888887CC040404058646464580055
:1003D00000003844404044380C0808086898989851
:1003E00068000000788484F88078081410103810B1
:1003F0001010380000007488887808F0C040405819
:1004000064444444C4001000301010101038000838
:1004100000180808082818602020242830282424E0
:10042000301010101010101038000000EC92929252
:100430009292000000586444444444000000384450
:1004400044444438000000F844447840E000000090
:1004500068989868081C0000009864404040E000DC
:1004600000003C40380404781010103810101014AC
:1004700008000000444444444C3400000044444418
:1004800044281000000082829292926C0000008446
:1004900048303048840000004444443C0478000064
:1004A00000FC08102040FC0C101010601010100C04
:1004B000101010101010101010601010100C1010F0
:1004C00010606498000000000000000000000000C0
:1004D000000000001C2240F040F040221C00000000
:1004E00000000000000000000000000000102008D4
:1004F00014103810101050200000000000002424B8
:100500004800000000000000005410107C10101083
:1005100010101010107C10107C101010102800000B
:100520000000000000C2C20408102040B2B228102F
:100530003C42807C02027C000000081008000000A1
:100540007E9090909E9090907E00000000000000B1
:1005500000002810FE0408102040FE0000000000EB
:10056000000000000000000000000000002010005B
:100570000000000000001020000000000000002427
:10058000484800000000000024244800000000004B
:1005900000000000000000001818000000003800F3
:1005A000000000000000007E000000002850000055
:1005B0000000000000F25E525252000000002810BD
:1005C0007C82807C02027C00000010081000000089
:1005D0000000006C92929C906E00000000000000F1
:1005E00000002810007C08102040FCAA824428103B
:1005F000101010100000000000000000001000109B
:100600001010101010100000023C4A506044B80C4A
:10061000122020782020203E000044382838440052
:100620000082442810107C107C1000202020002024
:1006300020200038442058241C02047828000000A0
:100640000000000000384492AAA2AA92443838045C
:100650003C243C000000000000002850280000005E
:10066000003C04000000000000000000000000004A
:1006700000003844B2AAB2AAAA4438FE0000000022
:100680000000000010281000000000000000000022
:10069000001010381038182408103C0000000038F2
:1006A00008300838000000001010000000000000B2
:1006B000000000000000505070407CA868282828E6
:1006C00028282800000000100000000000000000A2
:1006D00000000000101010100000000000001C14AA
:1006E0001C0000000000000000000000004824483A
:1006F000444850204898287808444850205C940882
:10070000103CC224C428D42C54BE84000000100025
:10071000101048302010001028447C44420810007B
:100720001028447C44441028001028447C4444325F
:10073000CC001028447C44440028001028447C4409
:10074000440010001028447C44440000003E487ED1
:1007500088888E3844808080804438102010007C47
:1007600040784040781020007C407840407C102841
:10077000007C407840407C0028007C407840407CF1
:100780002010001010101010100810001010101081
:100790001010102800101010101010002800101059
:1007A000101010100000007844E242447832CC006F
:1007B0004262524A464220100038444444443808B9
:1007C0001000384444444438102800384444444419
:1007D0003832CC003844444444380044003844445F
:1007E0004444380000442810284400000001023C22
:1007F0004C546444B8201000444444444438081025
:100800000044444444443810280044444444443898
:100810000044004444444444380810442810101054
:10082000101000004078444444784038444C50480C
:100830004444444420100070087888887C102000CC
:1008400070087888887C10280070087888887C3246
:10085000CC0070087888807C004400700878888814
:100860007C10281070087888887C000000EC127ECC
:100870009092AC003844404044381020201000389A
:1008800044784044380810003844784044381028F0
:1008900000384478404438004400384478404438B4
:1008A0002010001010101010100810001010101060
:1008B000101010280010101010101000440010101C
:1008C0001010101028102838444444443830CC000C
:1008D0005864444444442010003844444444380894
:1008E00010003844444444381028003844444444F8
:1008F0003832CC003844444444380044003844443E
:10090000444438000010007C001000000000023C4D
:100910004C92A244B8201000444444444C34081083
:1009200000444444444C34102800444444444C346F
:10093000004400444444444C341020004428102017
:1009400040800080B0C88484C8B08000440044283F
:100950001020408011241FBECFE5D8E0DEBFCDBF00
:1009600010E0A0E6B0E0E2E9F8E102C005900D92E7
:10097000AC39B107D9F710E0ACE9B0E001C01D9285
:10098000A33AB107E1F70E94C9040C94470C0C94F8
:100990000000DF93CF9300D0CDB7DEB70E94280AC6
:1009A0000E940B050E94290588E08093A100109207
:1009B0009C0010929D001092A20010929E007894CC
:1009C00080E690E09A83898380919E00282F30E012
:1009D00089819A81FC01E20FF31F80818093A0003E
:1009E0008091A000882371F410929E0080919E0057
:1009F000282F30E089819A81FC01E20FF31F80816A
:100A00008093A00080919D008130F1F610929D00AE
:100A10000E944405D9CFDF93CF9300D0CDB7DEB786
:100A2000E7E3F0E08081E7E3F0E08FEF8083E8E345
:100A3000F0E01082E4E3F0E08081E4E3F0E08FEFA7
:100A40008083E5E3F0E010820F900F90CF91DF916B
:100A50000895DF93CF93CDB7DEB7EFE4F0E01082D7
:100A6000EEE4F0E08BE08083EAE4F0E08CE790E0F5
:100A700091838083A9E5B0E0E9E5F0E080818061C1
:100A80008C93CF91DF910895DF93CF9300D000D066
:100A9000CDB7DEB70E940F098091A200882319F418
:100AA0000E94AC0502C00E94B7051C8236C044E516
:100AB00050E08091A000282F30E0C901880F991FD5
:100AC000880F991F880F991F280F391F8C81882F35
:100AD00090E0820F931F840F951F9B838A83EA8186
:100AE000FB81849189838981282F30E08091A10046
:100AF000882F90E0A90102C0559547958A95E2F7A5
:100B0000CA0181709070882319F00E94B70502C055
:100B10000E94AC058C818F5F8C838C81893039F683
:100B20000E941D098091A10081508093A1008091B5
:100B3000A100882351F488E08093A10080919E0059
:100B40008F5F80939E000E9472090F900F900F900C
:100B50000F90CF91DF910895DF93CF93CDB7DEB79C
:100B60000E94C2050E947207CF91DF910895DF9322
:100B7000CF93CDB7DEB70E949A060E947207CF913D
:100B8000DF910895DF93CF93CDB7DEB768970FB6A7
:100B9000F894DEBF0FBECDBFA8E3B0E0E8E3F0E01D
:100BA0008081877F8C9380E090E0A0E0B0E48D8B23
:100BB0009E8BAF8BB88F6D897E898F89988D2BEA3C
:100BC0003AEA4AE250E40E94CF0BDC01CB01898B68
:100BD0009A8BAB8BBC8B69897A898B899C8920E045
:100BE00030E040E85FE30E94BE0A88231CF481E005
:100BF000888B91C069897A898B899C8920E030E053
:100C00004FE753E40E94CB0B18160CF07BC06D89A4
:100C10007E898F89988D20E030E04AE754E40E9475
:100C2000C20ADC01CB018C879D87AE87BF876C85AC
:100C30007D858E859F8520E030E04AEF54E40E9458
:100C4000CF0BDC01CB0188879987AA87BB87688592
:100C500079858A859B8520E030E040E85FE30E944B
:100C6000BE0A88232CF481E090E09F838E833FC0EE
:100C7000688579858A859B8520E03FEF4FE757E4BB
:100C80000E94CB0B18164CF56C857D858E859F8553
:100C900020E030E040E251E40E94CF0BDC01CB01C8
:100CA000BC01CD010E942A0BDC01CB019F838E8306
:100CB0000FC088EC90E09D838C838C819D8101978F
:100CC000F1F79D838C838E819F8101979F838E8313
:100CD0008E819F81009769F724C0688579858A8510
:100CE0009B850E942A0BDC01CB019F838E838E8122
:100CF0009F819B838A838A819B810197F1F79B83E4
:100D00008A830FC069897A898B899C890E942A0B02
:100D1000DC01CB01888B8889898389818A95F1F7E9
:100D2000898368960FB6F894DEBF0FBECDBFCF9112
:100D3000DF910895DF93CF93CDB7DEB768970FB6F5
:100D4000F894DEBF0FBECDBFA8E3B0E0E8E3F0E06B
:100D5000808188608C9380E090E0A0E0B0E48D8B8F
:100D60009E8BAF8BB88F6D897E898F89988D2BEA8A
:100D70003AEA4AE250E40E94CF0BDC01CB01898BB6
:100D80009A8BAB8BBC8B69897A898B899C8920E093
:100D900030E040E85FE30E94BE0A88231CF481E053
:100DA000888B91C069897A898B899C8920E030E0A1
:100DB0004FE753E40E94CB0B18160CF07BC06D89F3
:100DC0007E898F89988D20E030E04AE754E40E94C4
:100DD000C20ADC01CB018C879D87AE87BF876C85FB
:100DE0007D858E859F8520E030E04AEF54E40E94A7
:100DF000CF0BDC01CB0188879987AA87BB876885E1
:100E000079858A859B8520E030E040E85FE30E9499
:100E1000BE0A88232CF481E090E09F838E833FC03C
:100E2000688579858A859B8520E03FEF4FE757E409
:100E30000E94CB0B18164CF56C857D858E859F85A1
:100E400020E030E040E251E40E94CF0BDC01CB0116
:100E5000BC01CD010E942A0BDC01CB019F838E8354
:100E60000FC088EC90E09D838C838C819D810197DD
:100E7000F1F79D838C838E819F8101979F838E8361
:100E80008E819F81009769F724C0688579858A855E
:100E90009B850E942A0BDC01CB019F838E838E8170
:100EA0009F819B838A838A819B810197F1F79B8332
:100EB0008A830FC069897A898B899C890E942A0B51
:100EC000DC01CB01888B8889898389818A95F1F738
:100ED000898368960FB6F894DEBF0FBECDBFCF9161
:100EE000DF910895DF93CF93CDB7DEB7E0970FB6CC
:100EF000F894DEBF0FBECDBFA8E3B0E0E8E3F0E0BA
:100F0000808180648C9380E090E0A0EEB0E48DA7B7
:100F10009EA7AFA7B8AB6DA57EA58FA598A92BEA14
:100F20003AEA4AE250E40E94CF0BDC01CB0189A7E8
:100F30009AA7ABA7BCA769A57AA58BA59CA520E01D
:100F400030E040E85FE30E94BE0A88231CF481E0A1
:100F500088A791C069A57AA58BA59CA520E030E063
:100F60004FE753E40E94CB0B18160CF07BC06DA525
:100F70007EA58FA598A920E030E04AE754E40E94BE
:100F8000C20ADC01CB018CA39DA3AEA3BFA36CA1BD
:100F90007DA18EA19FA120E030E04AEF54E40E94A1
:100FA000CF0BDC01CB0188A399A3AAA3BBA368A1A3
:100FB00079A18AA19BA120E030E040E85FE30E9494
:100FC000BE0A88232CF481E090E09F8F8E8F3FC073
:100FD00068A179A18AA19BA120E03FEF4FE757E4E8
:100FE0000E94CB0B18164CF56CA17DA18EA19FA180
:100FF00020E030E040E251E40E94CF0BDC01CB0165
:10100000BC01CD010E942A0BDC01CB019F8F8E8F8A
:101010000FC088EC90E09D8F8C8F8C8D9D8D0197FB
:10102000F1F79D8F8C8F8E8D9F8D01979F8F8E8F67
:101030008E8D9F8D009769F724C068A179A18AA140
:101040009BA10E942A0BDC01CB019F8F8E8F8E8D7E
:101050009F8D9B8F8A8F8A8D9B8D0197F1F79B8F38
:101060008A8F0FC069A57AA58BA59CA50E942A0B23
:10107000DC01CB0188A788A5898F898D8A95F1F736
:10108000898FA8E3B0E0E8E3F0E080818F7B8C9368
:1010900080E090E0A0EEB0E48D8B9E8BAF8BB88F9C
:1010A0006D897E898F89988D2BEA3AEA4AE250E46D
:1010B0000E94CF0BDC01CB01898B9A8BAB8BBC8B55
:1010C00069897A898B899C8920E030E040E85FE378
:1010D0000E94BE0A88231CF481E0888B91C0698934
:1010E0007A898B899C8920E030E04FE753E40E94A5
:1010F000CB0B18160CF07BC06D897E898F89988D7B
:1011000020E030E04AE754E40E94C20ADC01CB014F
:101110008C879D87AE87BF876C857D858E859F85F3
:1011200020E030E04AEF54E40E94CF0BDC01CB0119
:1011300088879987AA87BB87688579858A859B85F3
:1011400020E030E040E85FE30E94BE0A88232CF4F0
:1011500081E090E09F838E833FC0688579858A8592
:101160009B8520E03FEF4FE757E40E94CB0B18161A
:101170004CF56C857D858E859F8520E030E040E2D2
:1011800051E40E94CF0BDC01CB01BC01CD010E94D8
:101190002A0BDC01CB019F838E830FC088EC90E08B
:1011A0009D838C838C819D810197F1F79D838C8336
:1011B0008E819F8101979F838E838E819F8100976F
:1011C00069F724C0688579858A859B850E942A0BEA
:1011D000DC01CB019F838E838E819F819B838A83D9
:1011E0008A819B810197F1F79B838A830FC069896C
:1011F0007A898B899C890E942A0BDC01CB01888B20
:101200008889898389818A95F1F78983E0960FB669
:10121000F894DEBF0FBECDBFCF91DF910895DF936D
:10122000CF93CDB7DEB7A8E3B0E0E8E3F0E080818C
:101230008E7F8C93CF91DF910895DF93CF93CDB7BD
:10124000DEB7A8E3B0E0E8E3F0E0808181608C9352
:10125000CF91DF910895DF93CF93CDB7DEB7A8E3A9
:10126000B0E0E8E3F0E080818F7E8C93CF91DF9156
:101270000895DF93CF93CDB7DEB7A8E3B0E0E8E3FE
:10128000F0E0808180618C93CF91DF910895DF93AE
:10129000CF93CDB7DEB7A8E3B0E0E8E3F0E090810C
:1012A00080E189278C93CF91DF910895DF93CF93CD
:1012B000CDB7DEB7A5E3B0E0E5E3F0E080818F775E
:1012C0008C93CF91DF910895DF93CF93CDB7DEB7A5
:1012D000A5E3B0E0E5E3F0E0808180688C93CF91F6
:1012E000DF910895DF93CF93CDB7DEB7A5E3B0E0EC
:1012F000E5E3F0E0908180E889278C93CF91DF913E
:101300000895DF93CF93CDB7DEB7A5E3B0E0E5E373
:10131000F0E080818F7E8C93CF91DF910895DF93F1
:10132000CF93CDB7DEB7A5E3B0E0E5E3F0E0808191
:1013300080618C93CF91DF910895DF93CF93CDB7E8
:10134000DEB7A5E3B0E0E5E3F0E0908180E1892736
:101350008C93CF91DF9108951F920F920FB60F9249
:1013600011242F933F934F935F936F937F938F93AA
:101370009F93AF93BF93EF93FF93DF93CF93CDB73B
:10138000DEB7ECE2F0E080810E94D909CF91DF91D5
:10139000FF91EF91BF91AF919F918F917F916F914D
:1013A0005F914F913F912F910F900FBE0F901F9023
:1013B0001895DF93CF930F92CDB7DEB789830F9047
:1013C000CF91DF9108951F920F920FB60F921124C3
:1013D0002F933F934F935F936F937F938F939F933D
:1013E000AF93BF93EF93FF93DF93CF93CDB7DEB768
:1013F00080919C008F5F80939C0080919C00823341
:1014000029F410929C0081E080939D0080919F00C0
:101410008F5F80939F0080919F00883C31F41092F1
:101420009F000E9447090E949D09CF91DF91FF9183
:10143000EF91BF91AF919F918F917F916F915F914C
:101440004F913F912F910F900FBE0F901F901895C5
:10145000DF93CF93CDB7DEB7AAE2B0E0EAE2F0E0E7
:10146000808180688C93AAE2B0E0EAE2F0E08081BB
:1014700088608C93AAE2B0E0EAE2F0E080818061CB
:101480008C93A0E4B0E0E0E4F0E0808186608C938F
:10149000E0E4F0E01082E9E2F0E089E18083CF91BE
:1014A000DF910895DF93CF930F92CDB7DEB7898395
:1014B000EBE2F0E08081882F90E0807290700097DE
:1014C000B9F3ECE2F0E0898180830F90CF91DF9156
:1014D0000895DF93CF9300D000D0CDB7DEB79B83C4
:1014E0008A836C8319820DC0EA81FB8180810E940E
:1014F000520A8A819B8101969B838A8389818F5FAF
:10150000898399818C81981779F70F900F900F90AC
:101510000F90CF91DF910895DF93CF93CDB7DEB7D2
:10152000EBE2F0E080818823DCF7ECE2F0E0808100
:10153000CF91DF910895DF93CF930F92CDB7DEB7B0
:10154000898380E090E060E30E943A0C81E090E0C3
:1015500060E30E943A0C0F90CF91DF910895DF93E2
:10156000CF930F92CDB7DEB780E090E00E94320CAF
:10157000898389810F90CF91DF91089597D008F4E6
:1015800081E008950CD0CDC0C5D040F0BCD030F083
:1015900021F45F3F19F0AEC05111F7C0B1C0D2D0F5
:1015A00098F39923C9F35523B1F3951B550BBB272A
:1015B000AA2762177307840738F09F5F5F4F220FD7
:1015C000331F441FAA1FA9F333D00E2E3AF0E0E8D0
:1015D00030D091505040E695001CCAF729D0FE2F1C
:1015E00027D0660F771F881FBB1F261737074807AE
:1015F000AB07B0E809F0BB0B802DBF01FF27935864
:101600005F4F2AF09E3F510568F074C0BEC05F3F37
:10161000ECF3983EDCF3869577956795B795F7954B
:101620009F5FC9F7880F911D9695879597F9089543
:10163000E1E0660F771F881FBB1F621773078407DF
:10164000BA0720F0621B730B840BBA0BEE1F88F7EE
:10165000E09508957FD088F09F5790F0B92F992793
:10166000B751A0F0D1F0660F771F881F991F1AF0AD
:10167000BA95C9F712C0B13081F086D0B1E00895B3
:1016800083C0672F782F8827B85F39F0B93FCCF334
:10169000869577956795B395D9F73EF490958095A3
:1016A000709561957F4F8F4F9F4F0895990F000858
:1016B000550FAA0BE0E8FEEF16161706E807F90724
:1016C000C0F012161306E407F50798F0621B730BBF
:1016D000840B950B39F40A2661F0232B242B252B40
:1016E00021F408950A2609F4A140A6958FEF811DE3
:1016F000811D089597F99F6780E870E060E0089584
:101700009FEF80EC089500240A9416161706180619
:101710000906089500240A941216130614060506F5
:101720000895092E0394000C11F4882352F0BB0F86
:1017300040F4BF2B11F460FF04C06F5F7F4F8F4FE9
:101740009F4F089557FD9058440F551F59F05F3F24
:1017500071F04795880F97FB991F61F09F3F79F0D3
:1017600087950895121613061406551FF2CF469555
:10177000F1DF08C0161617061806991FF1CF8695D7
:101780007105610508940895E894BB2766277727BB
:10179000CB0197F908958ADF08F48FEF08950BD0F5
:1017A000C0CFB1DF28F0B6DF18F0952309F0A2CF43
:1017B000A7CF1124EACFC6DFA0F3959FD1F3950FF1
:1017C00050E0551F629FF001729FBB27F00DB11DC5
:1017D000639FAA27F00DB11DAA1F649F6627B00D55
:1017E000A11D661F829F2227B00DA11D621F739F3E
:1017F000B00DA11D621F839FA00D611D221F749F4C
:101800003327A00D611D231F849F600D211D822F92
:10181000762F6A2F11249F5750408AF0E1F08823D9
:101820004AF0EE0FFF1FBB1F661F771F881F9150E6
:101830005040A9F79E3F510570F05CCFA6CF5F3FA7
:10184000ECF3983EDCF3869577956795B795F79519
:10185000E7959F5FC1F7FE2B880F911D96958795A1
:1018600097F90895E199FECF9FBB8EBBE09A992727
:101870008DB30895262FE199FECF9FBB8EBB2DBB64
:101880000FB6F894E29AE19A0FBE01960895F89483
:02189000FFCF88
:10189200546573746669726D776172652E2020508B
:1018A200434220616E64204669726D7761726520E1
:1018B20064657369676E6564206279205753795352
:0C18C2002E61742020202D20202000002A
:00000001FF
